{
  "contractName": "MedicineList",
  "abi": [
    {
      "inputs": [
        {
          "internalType": "uint256",
          "name": "",
          "type": "uint256"
        }
      ],
      "name": "listOfMedicines",
      "outputs": [
        {
          "internalType": "uint256",
          "name": "medicineId",
          "type": "uint256"
        },
        {
          "internalType": "string",
          "name": "medicineName",
          "type": "string"
        },
        {
          "internalType": "string",
          "name": "brandName",
          "type": "string"
        },
        {
          "internalType": "string",
          "name": "medicineType",
          "type": "string"
        },
        {
          "internalType": "string",
          "name": "ndcNumber",
          "type": "string"
        }
      ],
      "stateMutability": "view",
      "type": "function",
      "constant": true
    },
    {
      "inputs": [],
      "name": "numberOfMedicines",
      "outputs": [
        {
          "internalType": "uint256",
          "name": "",
          "type": "uint256"
        }
      ],
      "stateMutability": "view",
      "type": "function",
      "constant": true
    },
    {
      "inputs": [
        {
          "internalType": "string",
          "name": "newMedicineName",
          "type": "string"
        },
        {
          "internalType": "string",
          "name": "brandName",
          "type": "string"
        },
        {
          "internalType": "string",
          "name": "medicineType",
          "type": "string"
        },
        {
          "internalType": "string",
          "name": "ndcNumber",
          "type": "string"
        }
      ],
      "name": "addMedicine",
      "outputs": [],
      "stateMutability": "nonpayable",
      "type": "function"
    },
    {
      "inputs": [
        {
          "internalType": "uint256",
          "name": "medicineId",
          "type": "uint256"
        }
      ],
      "name": "deleteMedicine",
      "outputs": [],
      "stateMutability": "nonpayable",
      "type": "function"
    }
  ],
  "bytecode": "0x60806040526000805534801561001457600080fd5b5061080c806100246000396000f3fe608060405234801561001057600080fd5b506004361061004c5760003560e01c8063020d07a4146100515780638fe70bef14610066578063c8b28c4814610093578063d19aa54f146100aa575b600080fd5b61006461005f3660046104fc565b6100bd565b005b6100796100743660046105a9565b610165565b60405161008a959493929190610608565b60405180910390f35b61009c60005481565b60405190815260200161008a565b6100646100b83660046105a9565b6103b3565b6000546100cb906001610667565b60008181556040805160a08101825283815260208082018981528284018990526060830188905260808301879052948452600190819052919092208251815592519192919082019061011d9082610716565b50604082015160028201906101329082610716565b50606082015160038201906101479082610716565b506080820151600482019061015c9082610716565b50505050505050565b6001602081905260009182526040909120805491810180546101869061068e565b80601f01602080910402602001604051908101604052809291908181526020018280546101b29061068e565b80156101ff5780601f106101d4576101008083540402835291602001916101ff565b820191906000526020600020905b8154815290600101906020018083116101e257829003601f168201915b5050505050908060020180546102149061068e565b80601f01602080910402602001604051908101604052809291908181526020018280546102409061068e565b801561028d5780601f106102625761010080835404028352916020019161028d565b820191906000526020600020905b81548152906001019060200180831161027057829003601f168201915b5050505050908060030180546102a29061068e565b80601f01602080910402602001604051908101604052809291908181526020018280546102ce9061068e565b801561031b5780601f106102f05761010080835404028352916020019161031b565b820191906000526020600020905b8154815290600101906020018083116102fe57829003601f168201915b5050505050908060040180546103309061068e565b80601f016020809104026020016040519081016040528092919081815260200182805461035c9061068e565b80156103a95780601f1061037e576101008083540402835291602001916103a9565b820191906000526020600020905b81548152906001019060200180831161038c57829003601f168201915b5050505050905085565b6000818152600160208190526040822082815591906103d490830182610403565b6103e2600283016000610403565b6103f0600383016000610403565b6103fe600483016000610403565b505050565b50805461040f9061068e565b6000825580601f1061041f575050565b601f01602090049060005260206000209081019061043d9190610440565b50565b5b808211156104555760008155600101610441565b5090565b634e487b7160e01b600052604160045260246000fd5b600082601f83011261048057600080fd5b813567ffffffffffffffff8082111561049b5761049b610459565b604051601f8301601f19908116603f011681019082821181831017156104c3576104c3610459565b816040528381528660208588010111156104dc57600080fd5b836020870160208301376000602085830101528094505050505092915050565b6000806000806080858703121561051257600080fd5b843567ffffffffffffffff8082111561052a57600080fd5b6105368883890161046f565b9550602087013591508082111561054c57600080fd5b6105588883890161046f565b9450604087013591508082111561056e57600080fd5b61057a8883890161046f565b9350606087013591508082111561059057600080fd5b5061059d8782880161046f565b91505092959194509250565b6000602082840312156105bb57600080fd5b5035919050565b6000815180845260005b818110156105e8576020818501810151868301820152016105cc565b506000602082860101526020601f19601f83011685010191505092915050565b85815260a06020820152600061062160a08301876105c2565b828103604084015261063381876105c2565b9050828103606084015261064781866105c2565b9050828103608084015261065b81856105c2565b98975050505050505050565b8082018082111561068857634e487b7160e01b600052601160045260246000fd5b92915050565b600181811c908216806106a257607f821691505b6020821081036106c257634e487b7160e01b600052602260045260246000fd5b50919050565b601f8211156103fe57600081815260208120601f850160051c810160208610156106ef5750805b601f850160051c820191505b8181101561070e578281556001016106fb565b505050505050565b815167ffffffffffffffff81111561073057610730610459565b6107448161073e845461068e565b846106c8565b602080601f83116001811461077957600084156107615750858301515b600019600386901b1c1916600185901b17855561070e565b600085815260208120601f198616915b828110156107a857888601518255948401946001909101908401610789565b50858210156107c65787850151600019600388901b60f8161c191681555b5050505050600190811b0190555056fea26469706673582212209293495fb0255fd12290d912d6dbcd5b7dfe10d0831b481499543b728521c91b64736f6c63430008130033",
  "immutableReferences": {},
  "source": "// SPDX-License-Identifier: UNLICENSED\npragma solidity <=0.8.19;\n\ncontract MedicineList{\n    uint public numberOfMedicines = 0;\n    mapping(uint => Medicine) public listOfMedicines;\n    struct Medicine{\n        uint medicineId;\n        string medicineName;\n        string brandName;\n        string medicineType;\n        string ndcNumber;\n    }\n    function addMedicine(string memory newMedicineName, string memory brandName, string memory medicineType, string memory ndcNumber) public{\n        numberOfMedicines = numberOfMedicines + 1;\n        listOfMedicines[numberOfMedicines] = Medicine(numberOfMedicines, newMedicineName, brandName, medicineType, ndcNumber);\n    }\n    function deleteMedicine(uint medicineId) public{\n        delete listOfMedicines[medicineId];\n    }\n}\n\n",
  "sourcePath": "/home/g/Documents/Truemed-backend/contracts/MedicineList.sol",
  "compiler": {
    "name": "solc",
    "version": "0.8.19+commit.7dd6d404.Emscripten.clang"
  },
  "schemaVersion": "3.4.13",
  "updatedAt": "2023-05-05T08:16:10.158Z",
  "networkType": "ethereum",
  "devdoc": {
    "kind": "dev",
    "methods": {},
    "version": 1
  },
  "userdoc": {
    "kind": "user",
    "methods": {},
    "version": 1
  }
}