{
  "contractName": "MedicineList",
  "abi": [
    {
      "inputs": [
        {
          "internalType": "uint256",
          "name": "",
          "type": "uint256"
        }
      ],
      "name": "listOfMedicines",
      "outputs": [
        {
          "internalType": "uint256",
          "name": "medicineId",
          "type": "uint256"
        },
        {
          "internalType": "string",
          "name": "medicineName",
          "type": "string"
        }
      ],
      "stateMutability": "view",
      "type": "function",
      "constant": true
    },
    {
      "inputs": [],
      "name": "numberOfMedicines",
      "outputs": [
        {
          "internalType": "uint256",
          "name": "",
          "type": "uint256"
        }
      ],
      "stateMutability": "view",
      "type": "function",
      "constant": true
    },
    {
      "inputs": [
        {
          "internalType": "string",
          "name": "newMedicineName",
          "type": "string"
        }
      ],
      "name": "addMedicine",
      "outputs": [],
      "stateMutability": "nonpayable",
      "type": "function"
    }
  ],
  "bytecode": "0x60806040526000805534801561001457600080fd5b5061046d806100246000396000f3fe608060405234801561001057600080fd5b50600436106100415760003560e01c806360234f10146100465780638fe70bef1461005b578063c8b28c4814610085575b600080fd5b6100596100543660046101a7565b61009c565b005b61006e610069366004610258565b6100ed565b60405161007c929190610271565b60405180910390f35b61008e60005481565b60405190815260200161007c565b6000546100aa9060016102c7565b6000818155604080518082018252838152602080820186815294845260019081905291909220825181559251919291908201906100e79082610377565b50505050565b60016020819052600091825260409091208054918101805461010e906102ee565b80601f016020809104026020016040519081016040528092919081815260200182805461013a906102ee565b80156101875780601f1061015c57610100808354040283529160200191610187565b820191906000526020600020905b81548152906001019060200180831161016a57829003601f168201915b5050505050905082565b634e487b7160e01b600052604160045260246000fd5b6000602082840312156101b957600080fd5b813567ffffffffffffffff808211156101d157600080fd5b818401915084601f8301126101e557600080fd5b8135818111156101f7576101f7610191565b604051601f8201601f19908116603f0116810190838211818310171561021f5761021f610191565b8160405282815287602084870101111561023857600080fd5b826020860160208301376000928101602001929092525095945050505050565b60006020828403121561026a57600080fd5b5035919050565b82815260006020604081840152835180604085015260005b818110156102a557858101830151858201606001528201610289565b506000606082860101526060601f19601f830116850101925050509392505050565b808201808211156102e857634e487b7160e01b600052601160045260246000fd5b92915050565b600181811c9082168061030257607f821691505b60208210810361032257634e487b7160e01b600052602260045260246000fd5b50919050565b601f82111561037257600081815260208120601f850160051c8101602086101561034f5750805b601f850160051c820191505b8181101561036e5782815560010161035b565b5050505b505050565b815167ffffffffffffffff81111561039157610391610191565b6103a58161039f84546102ee565b84610328565b602080601f8311600181146103da57600084156103c25750858301515b600019600386901b1c1916600185901b17855561036e565b600085815260208120601f198616915b82811015610409578886015182559484019460019091019084016103ea565b50858210156104275787850151600019600388901b60f8161c191681555b5050505050600190811b0190555056fea264697066735822122059fae95db8fde571e1de0b46c2b89704f53d0d2c8b39d42b5519c9f669eb6afc64736f6c63430008130033",
  "immutableReferences": {},
  "source": "// SPDX-License-Identifier: UNLICENSED\r\npragma solidity <=0.8.19;\r\n\r\ncontract MedicineList{\r\n    uint public numberOfMedicines = 0;\r\n    mapping(uint => Medicine) public listOfMedicines;\r\n    struct Medicine{\r\n        uint medicineId;\r\n        string medicineName;\r\n    }\r\n    function addMedicine(string memory newMedicineName ) public{\r\n        numberOfMedicines = numberOfMedicines + 1;\r\n        listOfMedicines[numberOfMedicines] = Medicine(numberOfMedicines, newMedicineName);\r\n    }\r\n}\r\n\r\n",
  "sourcePath": "E:\\React apps\\workspace\\Truemed-backend\\contracts\\MedicineList.sol",
  "compiler": {
    "name": "solc",
    "version": "0.8.19+commit.7dd6d404.Emscripten.clang"
  },
  "schemaVersion": "3.4.13",
  "updatedAt": "2023-04-21T07:41:40.639Z",
  "networkType": "ethereum",
  "devdoc": {
    "kind": "dev",
    "methods": {},
    "version": 1
  },
  "userdoc": {
    "kind": "user",
    "methods": {},
    "version": 1
  }
}