{
  "contractName": "MedicineList",
  "abi": [
    {
      "inputs": [
        {
          "internalType": "uint256",
          "name": "",
          "type": "uint256"
        }
      ],
      "name": "listOfMedicines",
      "outputs": [
        {
          "internalType": "uint256",
          "name": "medicineId",
          "type": "uint256"
        },
        {
          "internalType": "string",
          "name": "medicineName",
          "type": "string"
        },
        {
          "internalType": "string",
          "name": "brandName",
          "type": "string"
        },
        {
          "internalType": "string",
          "name": "medicineType",
          "type": "string"
        },
        {
          "internalType": "string",
          "name": "ndcNumber",
          "type": "string"
        }
      ],
      "stateMutability": "view",
      "type": "function",
      "constant": true
    },
    {
      "inputs": [],
      "name": "numberOfMedicines",
      "outputs": [
        {
          "internalType": "uint256",
          "name": "",
          "type": "uint256"
        }
      ],
      "stateMutability": "view",
      "type": "function",
      "constant": true
    },
    {
      "inputs": [
        {
          "internalType": "string",
          "name": "newMedicineName",
          "type": "string"
        },
        {
          "internalType": "string",
          "name": "brandName",
          "type": "string"
        },
        {
          "internalType": "string",
          "name": "medicineType",
          "type": "string"
        },
        {
          "internalType": "string",
          "name": "ndcNumber",
          "type": "string"
        }
      ],
      "name": "addMedicine",
      "outputs": [
        {
          "internalType": "uint256",
          "name": "",
          "type": "uint256"
        }
      ],
      "stateMutability": "nonpayable",
      "type": "function"
    },
    {
      "inputs": [
        {
          "internalType": "uint256",
          "name": "medicineId",
          "type": "uint256"
        }
      ],
      "name": "deleteMedicine",
      "outputs": [],
      "stateMutability": "nonpayable",
      "type": "function"
    }
  ],
  "bytecode": "0x60806040526000805534801561001457600080fd5b5061083b806100246000396000f3fe608060405234801561001057600080fd5b506004361061004c5760003560e01c8063020d07a4146100515780638fe70bef14610077578063c8b28c481461009b578063d19aa54f146100a4575b600080fd5b61006461005f366004610510565b6100b9565b6040519081526020015b60405180910390f35b61008a6100853660046105bd565b610167565b60405161006e95949392919061061c565b61006460005481565b6100b76100b23660046105bd565b6103b5565b005b600080546100c8906001610691565b60008181556040805160a08101825283815260208082018a81528284018a90526060830189905260808301889052948452600190819052919092208251815592519192919082019061011a9082610732565b506040820151600282019061012f9082610732565b50606082015160038201906101449082610732565b50608082015160048201906101599082610732565b506063979650505050505050565b600160208190526000918252604090912080549181018054610188906106aa565b80601f01602080910402602001604051908101604052809291908181526020018280546101b4906106aa565b80156102015780601f106101d657610100808354040283529160200191610201565b820191906000526020600020905b8154815290600101906020018083116101e457829003601f168201915b505050505090806002018054610216906106aa565b80601f0160208091040260200160405190810160405280929190818152602001828054610242906106aa565b801561028f5780601f106102645761010080835404028352916020019161028f565b820191906000526020600020905b81548152906001019060200180831161027257829003601f168201915b5050505050908060030180546102a4906106aa565b80601f01602080910402602001604051908101604052809291908181526020018280546102d0906106aa565b801561031d5780601f106102f25761010080835404028352916020019161031d565b820191906000526020600020905b81548152906001019060200180831161030057829003601f168201915b505050505090806004018054610332906106aa565b80601f016020809104026020016040519081016040528092919081815260200182805461035e906106aa565b80156103ab5780601f10610380576101008083540402835291602001916103ab565b820191906000526020600020905b81548152906001019060200180831161038e57829003601f168201915b5050505050905085565b60016000546103c491906107f2565b6000908155818152600160208190526040822082815591906103e890830182610417565b6103f6600283016000610417565b610404600383016000610417565b610412600483016000610417565b505050565b508054610423906106aa565b6000825580601f10610433575050565b601f0160209004906000526020600020908101906104519190610454565b50565b5b808211156104695760008155600101610455565b5090565b634e487b7160e01b600052604160045260246000fd5b600082601f83011261049457600080fd5b813567ffffffffffffffff808211156104af576104af61046d565b604051601f8301601f19908116603f011681019082821181831017156104d7576104d761046d565b816040528381528660208588010111156104f057600080fd5b836020870160208301376000602085830101528094505050505092915050565b6000806000806080858703121561052657600080fd5b843567ffffffffffffffff8082111561053e57600080fd5b61054a88838901610483565b9550602087013591508082111561056057600080fd5b61056c88838901610483565b9450604087013591508082111561058257600080fd5b61058e88838901610483565b935060608701359150808211156105a457600080fd5b506105b187828801610483565b91505092959194509250565b6000602082840312156105cf57600080fd5b5035919050565b6000815180845260005b818110156105fc576020818501810151868301820152016105e0565b506000602082860101526020601f19601f83011685010191505092915050565b85815260a06020820152600061063560a08301876105d6565b828103604084015261064781876105d6565b9050828103606084015261065b81866105d6565b9050828103608084015261066f81856105d6565b98975050505050505050565b634e487b7160e01b600052601160045260246000fd5b808201808211156106a4576106a461067b565b92915050565b600181811c908216806106be57607f821691505b6020821081036106de57634e487b7160e01b600052602260045260246000fd5b50919050565b601f82111561041257600081815260208120601f850160051c8101602086101561070b5750805b601f850160051c820191505b8181101561072a57828155600101610717565b505050505050565b815167ffffffffffffffff81111561074c5761074c61046d565b6107608161075a84546106aa565b846106e4565b602080601f831160018114610795576000841561077d5750858301515b600019600386901b1c1916600185901b17855561072a565b600085815260208120601f198616915b828110156107c4578886015182559484019460019091019084016107a5565b50858210156107e25787850151600019600388901b60f8161c191681555b5050505050600190811b01905550565b818103818111156106a4576106a461067b56fea2646970667358221220808f67f963b3ace4ec8ece8aac518bc0f2d054d625c40334411ccb5381392cb764736f6c63430008130033",
  "immutableReferences": {},
  "source": "// SPDX-License-Identifier: UNLICENSED\npragma solidity <=0.8.19;\n\ncontract MedicineList{\n    uint public numberOfMedicines = 0;\n    mapping(uint => Medicine) public listOfMedicines;\n    struct Medicine{\n        uint medicineId;\n        string medicineName;\n        string brandName;\n        string medicineType;\n        string ndcNumber;\n    }\n    function addMedicine(string memory newMedicineName, string memory brandName, string memory medicineType, string memory ndcNumber) public returns(uint){\n        numberOfMedicines = numberOfMedicines + 1;\n        listOfMedicines[numberOfMedicines] = Medicine(numberOfMedicines, newMedicineName, brandName, medicineType, ndcNumber);\n        return 99;\n    }\n    function deleteMedicine(uint medicineId) public{\n        numberOfMedicines = numberOfMedicines - 1;\n        delete listOfMedicines[medicineId];\n    }\n}\n\n",
  "sourcePath": "/home/gautam/Documents/College project/fakeProductDetectionUsingBlockchain/contracts/MedicineList.sol",
  "compiler": {
    "name": "solc",
    "version": "0.8.19+commit.7dd6d404.Emscripten.clang"
  },
  "schemaVersion": "3.4.13",
  "updatedAt": "2023-04-23T07:39:48.280Z",
  "networkType": "ethereum",
  "devdoc": {
    "kind": "dev",
    "methods": {},
    "version": 1
  },
  "userdoc": {
    "kind": "user",
    "methods": {},
    "version": 1
  }
}