{
  "contractName": "ProductList",
  "abi": [
    {
      "inputs": [],
      "name": "numberOfProducts",
      "outputs": [
        {
          "internalType": "uint256",
          "name": "",
          "type": "uint256"
        }
      ],
      "stateMutability": "view",
      "type": "function",
      "constant": true
    }
  ],
  "bytecode": "0x60806040526001600055348015601457600080fd5b50607d806100236000396000f3fe6080604052348015600f57600080fd5b506004361060285760003560e01c8063c66301b214602d575b600080fd5b603560005481565b60405190815260200160405180910390f3fea26469706673582212200fe53e7ed3e224394fb8af8e39fbc75868138cd12c9e0595c7d998c821c5dd6c64736f6c63430008130033",
  "immutableReferences": {},
  "source": "// SPDX-License-Identifier: UNLICENSED\npragma solidity <=0.8.19;\n\ncontract ProductList{\n    uint public numberOfProducts = 1;\n}\n\n",
  "sourcePath": "/home/gautam/Documents/College project/fakeProductDetectionUsingBlockchain/contracts/ProductList.sol",
  "compiler": {
    "name": "solc",
    "version": "0.8.19+commit.7dd6d404.Emscripten.clang"
  },
  "schemaVersion": "3.4.13",
  "updatedAt": "2023-04-20T08:57:19.145Z",
  "networkType": "ethereum",
  "devdoc": {
    "kind": "dev",
    "methods": {},
    "version": 1
  },
  "userdoc": {
    "kind": "user",
    "methods": {},
    "version": 1
  }
}