{
  "contractName": "ShipmentList",
  "abi": [
    {
      "inputs": [
        {
          "internalType": "uint256",
          "name": "",
          "type": "uint256"
        },
        {
          "internalType": "uint256",
          "name": "",
          "type": "uint256"
        }
      ],
      "name": "listOfShipments",
      "outputs": [
        {
          "internalType": "uint256",
          "name": "chainId",
          "type": "uint256"
        },
        {
          "internalType": "uint256",
          "name": "shipmentId",
          "type": "uint256"
        },
        {
          "internalType": "uint256",
          "name": "medicineId",
          "type": "uint256"
        },
        {
          "internalType": "address",
          "name": "senderId",
          "type": "address"
        },
        {
          "internalType": "address",
          "name": "recieverId",
          "type": "address"
        },
        {
          "internalType": "uint256",
          "name": "sendingTime",
          "type": "uint256"
        },
        {
          "internalType": "string",
          "name": "deliveryStatus",
          "type": "string"
        },
        {
          "internalType": "bool",
          "name": "transactionStatus",
          "type": "bool"
        }
      ],
      "stateMutability": "view",
      "type": "function",
      "constant": true
    },
    {
      "inputs": [],
      "name": "numberOfChains",
      "outputs": [
        {
          "internalType": "uint256",
          "name": "",
          "type": "uint256"
        }
      ],
      "stateMutability": "view",
      "type": "function",
      "constant": true
    },
    {
      "inputs": [
        {
          "internalType": "uint256",
          "name": "",
          "type": "uint256"
        }
      ],
      "name": "numberOfShipments",
      "outputs": [
        {
          "internalType": "uint256",
          "name": "",
          "type": "uint256"
        }
      ],
      "stateMutability": "view",
      "type": "function",
      "constant": true
    },
    {
      "inputs": [
        {
          "internalType": "bool",
          "name": "newShipment",
          "type": "bool"
        },
        {
          "internalType": "uint256",
          "name": "chainId",
          "type": "uint256"
        },
        {
          "internalType": "uint256",
          "name": "medicineId",
          "type": "uint256"
        },
        {
          "internalType": "address",
          "name": "recieverId",
          "type": "address"
        },
        {
          "internalType": "string",
          "name": "deliveryStatus",
          "type": "string"
        }
      ],
      "name": "createShipment",
      "outputs": [],
      "stateMutability": "nonpayable",
      "type": "function"
    },
    {
      "inputs": [
        {
          "internalType": "uint256",
          "name": "chainId",
          "type": "uint256"
        },
        {
          "internalType": "uint256",
          "name": "shipmentId",
          "type": "uint256"
        }
      ],
      "name": "deleteShipment",
      "outputs": [],
      "stateMutability": "nonpayable",
      "type": "function"
    },
    {
      "inputs": [
        {
          "internalType": "uint256",
          "name": "chainId",
          "type": "uint256"
        }
      ],
      "name": "deleteChain",
      "outputs": [],
      "stateMutability": "nonpayable",
      "type": "function"
    },
    {
      "inputs": [
        {
          "internalType": "uint256",
          "name": "chainId",
          "type": "uint256"
        },
        {
          "internalType": "uint256",
          "name": "shipmentId",
          "type": "uint256"
        },
        {
          "internalType": "string",
          "name": "deliveryStatus",
          "type": "string"
        }
      ],
      "name": "updateDeliveryStatus",
      "outputs": [],
      "stateMutability": "nonpayable",
      "type": "function"
    },
    {
      "inputs": [
        {
          "internalType": "uint256",
          "name": "chainId",
          "type": "uint256"
        },
        {
          "internalType": "uint256",
          "name": "shipmentId",
          "type": "uint256"
        }
      ],
      "name": "setTransactionComplete",
      "outputs": [],
      "stateMutability": "nonpayable",
      "type": "function"
    },
    {
      "inputs": [
        {
          "internalType": "uint256",
          "name": "chainId",
          "type": "uint256"
        },
        {
          "internalType": "uint256",
          "name": "shipmentId",
          "type": "uint256"
        }
      ],
      "name": "setVerified",
      "outputs": [],
      "stateMutability": "nonpayable",
      "type": "function"
    },
    {
      "inputs": [
        {
          "internalType": "uint256",
          "name": "chainId",
          "type": "uint256"
        },
        {
          "internalType": "uint256",
          "name": "shipmentId",
          "type": "uint256"
        },
        {
          "internalType": "address",
          "name": "account",
          "type": "address"
        }
      ],
      "name": "getVerificationResult",
      "outputs": [
        {
          "internalType": "bool",
          "name": "",
          "type": "bool"
        }
      ],
      "stateMutability": "view",
      "type": "function",
      "constant": true
    },
    {
      "inputs": [
        {
          "internalType": "uint256",
          "name": "chainId",
          "type": "uint256"
        },
        {
          "internalType": "uint256",
          "name": "shipmentId",
          "type": "uint256"
        }
      ],
      "name": "allowOpenSelling",
      "outputs": [],
      "stateMutability": "nonpayable",
      "type": "function"
    }
  ],
  "bytecode": "0x6080604052600060015534801561001557600080fd5b50610c8a806100256000396000f3fe608060405234801561001057600080fd5b50600436106100a95760003560e01c80635702aba3116100715780635702aba3146101505780636a36c42314610173578063ce735b0814610186578063d5264aba14610199578063de62944f14610119578063f0e8b1a2146101b957600080fd5b806302bc40b3146100ae578063069aaa77146100c35780630b2f318c146100df5780631d48ba7c14610106578063427dfaa714610119575b600080fd5b6100c16100bc3660046108ea565b6101ff565b005b6100cc60015481565b6040519081526020015b60405180910390f35b6100f26100ed366004610963565b610506565b6040516100d6989796959493929190610985565b6100c1610114366004610963565b6105ec565b6100c1610127366004610963565b60009182526002602090815260408084209284529190529020600701805460ff19166001179055565b61016361015e366004610a25565b61065a565b60405190151581526020016100d6565b6100c1610181366004610a5a565b6106fc565b6100c1610194366004610a73565b6107a9565b6100cc6101a7366004610a5a565b60006020819052908152604090205481565b6100c16101c7366004610963565b6000918252600260209081526040808420928452919052902060078101805460ff1916905560040180546001600160a01b0319169055565b3342861515600103610393576001805461021891610ad9565b6001819055600090815260208190526040812080549161023783610af2565b919050555060405180610100016040528060015481526020016000806001548152602001908152602001600020548152602001868152602001836001600160a01b03168152602001856001600160a01b03168152602001828152602001848152602001600015158152506002600060015481526020019081526020016000206000806000600154815260200190815260200160002054815260200190815260200160002060008201518160000155602082015181600101556040820151816002015560608201518160030160006101000a8154816001600160a01b0302191690836001600160a01b0316021790555060808201518160040160006101000a8154816001600160a01b0302191690836001600160a01b0316021790555060a0820151816005015560c08201518160060190816103729190610b94565b5060e091909101516007909101805460ff19169115159190911790556104fd565b60008681526020819052604081208054916103ad83610af2565b9190505550604051806101000160405280878152602001600080898152602001908152602001600020548152602001868152602001836001600160a01b03168152602001856001600160a01b03168152602001828152602001848152602001600015158152506002600088815260200190815260200160002060008060008a815260200190815260200160002054815260200190815260200160002060008201518160000155602082015181600101556040820151816002015560608201518160030160006101000a8154816001600160a01b0302191690836001600160a01b0316021790555060808201518160040160006101000a8154816001600160a01b0302191690836001600160a01b0316021790555060a0820151816005015560c08201518160060190816104e09190610b94565b5060e091909101516007909101805460ff19169115159190911790555b50505050505050565b60026020818152600093845260408085209091529183529120805460018201549282015460038301546004840154600585015460068601805495979694956001600160a01b03948516959490931693919261056090610b0b565b80601f016020809104026020016040519081016040528092919081815260200182805461058c90610b0b565b80156105d95780601f106105ae576101008083540402835291602001916105d9565b820191906000526020600020905b8154815290600101906020018083116105bc57829003601f168201915b5050506007909301549192505060ff1688565b60008281526002602081815260408084208585529091528220828155600181018390559081018290556003810180546001600160a01b03199081169091556004820180549091169055600581018290559061064a60068301826107d5565b50600701805460ff191690555050565b600083815260026020908152604080832085845290915281206007015460ff16151560010361068b575060006106f5565b60008481526002602090815260408083208684529091529020600401546001600160a01b03838116911614806106e4575060008481526002602090815260408083208684529091529020600401546001600160a01b0316155b156106f1575060016106f5565b5060005b9392505050565b60005b6000828152602081905260409020548110156107a55760008281526002602052604081209061072f836001610ad9565b81526020810191909152604001600090812081815560018101829055600281018290556003810180546001600160a01b03199081169091556004820180549091169055600581018290559061078760068301826107d5565b50600701805460ff191690558061079d81610af2565b9150506106ff565b5050565b600083815260026020908152604080832085845290915290206006016107cf8282610b94565b50505050565b5080546107e190610b0b565b6000825580601f106107f1575050565b601f01602090049060005260206000209081019061080f9190610812565b50565b5b808211156108275760008155600101610813565b5090565b80356001600160a01b038116811461084257600080fd5b919050565b634e487b7160e01b600052604160045260246000fd5b600082601f83011261086e57600080fd5b813567ffffffffffffffff8082111561088957610889610847565b604051601f8301601f19908116603f011681019082821181831017156108b1576108b1610847565b816040528381528660208588010111156108ca57600080fd5b836020870160208301376000602085830101528094505050505092915050565b600080600080600060a0868803121561090257600080fd5b8535801515811461091257600080fd5b9450602086013593506040860135925061092e6060870161082b565b9150608086013567ffffffffffffffff81111561094a57600080fd5b6109568882890161085d565b9150509295509295909350565b6000806040838503121561097657600080fd5b50508035926020909101359150565b8881526020808201899052604082018890526001600160a01b0387811660608401528616608083015260a0820185905261010060c08301819052845190830181905260009182915b808310156109ec578683018201518584016101200152918101916109cd565b6101209250600083828701015282601f19601f8301168601019350505050610a1860e083018415159052565b9998505050505050505050565b600080600060608486031215610a3a57600080fd5b8335925060208401359150610a516040850161082b565b90509250925092565b600060208284031215610a6c57600080fd5b5035919050565b600080600060608486031215610a8857600080fd5b8335925060208401359150604084013567ffffffffffffffff811115610aad57600080fd5b610ab98682870161085d565b9150509250925092565b634e487b7160e01b600052601160045260246000fd5b80820180821115610aec57610aec610ac3565b92915050565b600060018201610b0457610b04610ac3565b5060010190565b600181811c90821680610b1f57607f821691505b602082108103610b3f57634e487b7160e01b600052602260045260246000fd5b50919050565b601f821115610b8f57600081815260208120601f850160051c81016020861015610b6c5750805b601f850160051c820191505b81811015610b8b57828155600101610b78565b5050505b505050565b815167ffffffffffffffff811115610bae57610bae610847565b610bc281610bbc8454610b0b565b84610b45565b602080601f831160018114610bf75760008415610bdf5750858301515b600019600386901b1c1916600185901b178555610b8b565b600085815260208120601f198616915b82811015610c2657888601518255948401946001909101908401610c07565b5085821015610c445787850151600019600388901b60f8161c191681555b5050505050600190811b0190555056fea26469706673582212205273fa5b0d5bed10363ebe07c132d72a6ded59cf51976a85ee9fad6002e2b72d64736f6c63430008130033",
  "immutableReferences": {},
  "source": "// SPDX-License-Identifier: UNLICENSED\npragma solidity <=0.8.19;\n\ncontract ShipmentList{\n    mapping(uint=>uint) public numberOfShipments;\n    uint public numberOfChains = 0;\n    mapping(uint => mapping(uint=>Shipment)) public listOfShipments;\n    struct Shipment{\n        uint chainId;\n        uint shipmentId;\n        uint medicineId;\n        address senderId;\n        address recieverId;\n        uint256 sendingTime;\n        string deliveryStatus;\n        bool transactionStatus;\n    }\n    function createShipment(bool newShipment, uint chainId, uint medicineId, address recieverId, string memory deliveryStatus) public{\n        // mapping(uint=> address) senderIds;\n        // mapping(uint=> uint256) sendingTimes = {};\n        address senderId = msg.sender;\n        uint256 sendingTime = block.timestamp;\n        if(newShipment==true){\n            numberOfChains = numberOfChains+1;\n            numberOfShipments[numberOfChains]++;\n            listOfShipments[numberOfChains][numberOfShipments[numberOfChains]] = Shipment(numberOfChains, numberOfShipments[numberOfChains], medicineId, senderId, recieverId, sendingTime, deliveryStatus, false);\n        }else{\n            numberOfShipments[chainId]++;\n            listOfShipments[chainId][numberOfShipments[chainId]] = Shipment(chainId, numberOfShipments[chainId], medicineId, senderId, recieverId, sendingTime, deliveryStatus, false);\n        }\n    }\n\n    function deleteShipment(uint chainId, uint shipmentId) public{\n        delete listOfShipments[chainId][shipmentId];\n    }\n\n    function deleteChain(uint chainId) public{\n        for(uint i = 0;i < numberOfShipments[chainId];i++){\n            delete listOfShipments[chainId][i+1];\n        }\n    }\n\n    function updateDeliveryStatus(uint chainId, uint shipmentId, string memory deliveryStatus) public {\n        listOfShipments[chainId][shipmentId].deliveryStatus = deliveryStatus;\n    }\n    function setTransactionComplete(uint chainId, uint shipmentId) public{\n        listOfShipments[chainId][shipmentId].transactionStatus = true;\n    }\n    function setVerified(uint chainId, uint shipmentId) public{\n        listOfShipments[chainId][shipmentId].transactionStatus = true;\n    }\n    function getVerificationResult(uint chainId, uint shipmentId, address account) public view returns(bool){\n        if(listOfShipments[chainId][shipmentId].transactionStatus==true){\n            return false;\n        }else{\n            if(listOfShipments[chainId][shipmentId].recieverId==account || listOfShipments[chainId][shipmentId].recieverId==address(0)){\n                return true;\n            }else{\n                return false;\n            }\n        }\n    }\n    function allowOpenSelling(uint chainId, uint shipmentId) public {\n        listOfShipments[chainId][shipmentId].transactionStatus = false;\n        listOfShipments[chainId][shipmentId].recieverId = address(0);\n    }\n\n}\n\n",
  "sourcePath": "/home/g/Documents/Truemed-backend/contracts/ShipmentList.sol",
  "compiler": {
    "name": "solc",
    "version": "0.8.19+commit.7dd6d404.Emscripten.clang"
  },
  "schemaVersion": "3.4.13",
  "updatedAt": "2023-05-05T08:16:10.205Z",
  "networkType": "ethereum",
  "devdoc": {
    "kind": "dev",
    "methods": {},
    "version": 1
  },
  "userdoc": {
    "kind": "user",
    "methods": {},
    "version": 1
  }
}