{
  "contractName": "ShipmentList",
  "abi": [
    {
      "inputs": [
        {
          "internalType": "uint256",
          "name": "",
          "type": "uint256"
        },
        {
          "internalType": "uint256",
          "name": "",
          "type": "uint256"
        }
      ],
      "name": "listOfShipments",
      "outputs": [
        {
          "internalType": "uint256",
          "name": "chainId",
          "type": "uint256"
        },
        {
          "internalType": "uint256",
          "name": "shipmentId",
          "type": "uint256"
        },
        {
          "internalType": "uint256",
          "name": "medicineId",
          "type": "uint256"
        },
        {
          "internalType": "address",
          "name": "senderId",
          "type": "address"
        },
        {
          "internalType": "address",
          "name": "recieverId",
          "type": "address"
        },
        {
          "internalType": "uint256",
          "name": "sendingTime",
          "type": "uint256"
        },
        {
          "internalType": "string",
          "name": "deliveryStatus",
          "type": "string"
        },
        {
          "internalType": "bool",
          "name": "transactionStatus",
          "type": "bool"
        }
      ],
      "stateMutability": "view",
      "type": "function",
      "constant": true
    },
    {
      "inputs": [],
      "name": "numberOfChains",
      "outputs": [
        {
          "internalType": "uint256",
          "name": "",
          "type": "uint256"
        }
      ],
      "stateMutability": "view",
      "type": "function",
      "constant": true
    },
    {
      "inputs": [
        {
          "internalType": "uint256",
          "name": "",
          "type": "uint256"
        }
      ],
      "name": "numberOfShipments",
      "outputs": [
        {
          "internalType": "uint256",
          "name": "",
          "type": "uint256"
        }
      ],
      "stateMutability": "view",
      "type": "function",
      "constant": true
    },
    {
      "inputs": [
        {
          "internalType": "bool",
          "name": "newShipment",
          "type": "bool"
        },
        {
          "internalType": "uint256",
          "name": "chainId",
          "type": "uint256"
        },
        {
          "internalType": "uint256",
          "name": "medicineId",
          "type": "uint256"
        },
        {
          "internalType": "address",
          "name": "recieverId",
          "type": "address"
        },
        {
          "internalType": "string",
          "name": "deliveryStatus",
          "type": "string"
        }
      ],
      "name": "createShipment",
      "outputs": [],
      "stateMutability": "nonpayable",
      "type": "function"
    },
    {
      "inputs": [
        {
          "internalType": "uint256",
          "name": "chainId",
          "type": "uint256"
        },
        {
          "internalType": "uint256",
          "name": "shipmentId",
          "type": "uint256"
        }
      ],
      "name": "deleteShipment",
      "outputs": [],
      "stateMutability": "nonpayable",
      "type": "function"
    },
    {
      "inputs": [
        {
          "internalType": "uint256",
          "name": "chainId",
          "type": "uint256"
        }
      ],
      "name": "deleteChain",
      "outputs": [],
      "stateMutability": "nonpayable",
      "type": "function"
    },
    {
      "inputs": [
        {
          "internalType": "uint256",
          "name": "chainId",
          "type": "uint256"
        },
        {
          "internalType": "uint256",
          "name": "shipmentId",
          "type": "uint256"
        },
        {
          "internalType": "string",
          "name": "deliveryStatus",
          "type": "string"
        }
      ],
      "name": "updateDeliveryStatus",
      "outputs": [],
      "stateMutability": "nonpayable",
      "type": "function"
    },
    {
      "inputs": [
        {
          "internalType": "uint256",
          "name": "chainId",
          "type": "uint256"
        },
        {
          "internalType": "uint256",
          "name": "shipmentId",
          "type": "uint256"
        }
      ],
      "name": "setTransactionComplete",
      "outputs": [],
      "stateMutability": "nonpayable",
      "type": "function"
    },
    {
      "inputs": [
        {
          "internalType": "uint256",
          "name": "chainId",
          "type": "uint256"
        },
        {
          "internalType": "uint256",
          "name": "shipmentId",
          "type": "uint256"
        }
      ],
      "name": "setVerified",
      "outputs": [],
      "stateMutability": "nonpayable",
      "type": "function"
    },
    {
      "inputs": [
        {
          "internalType": "uint256",
          "name": "chainId",
          "type": "uint256"
        },
        {
          "internalType": "uint256",
          "name": "shipmentId",
          "type": "uint256"
        },
        {
          "internalType": "address",
          "name": "account",
          "type": "address"
        }
      ],
      "name": "getVerificationResult",
      "outputs": [
        {
          "internalType": "uint256",
          "name": "",
          "type": "uint256"
        }
      ],
      "stateMutability": "view",
      "type": "function",
      "constant": true
    },
    {
      "inputs": [
        {
          "internalType": "uint256",
          "name": "chainId",
          "type": "uint256"
        },
        {
          "internalType": "uint256",
          "name": "shipmentId",
          "type": "uint256"
        }
      ],
      "name": "allowOpenSelling",
      "outputs": [],
      "stateMutability": "nonpayable",
      "type": "function"
    }
  ],
  "bytecode": "0x6080604052600060015534801561001557600080fd5b50610caf806100256000396000f3fe608060405234801561001057600080fd5b50600436106100a95760003560e01c80635702aba3116100715780635702aba3146101505780636a36c42314610163578063ce735b0814610176578063d5264aba14610189578063de62944f14610119578063f0e8b1a2146101a957600080fd5b806302bc40b3146100ae578063069aaa77146100c35780630b2f318c146100df5780631d48ba7c14610106578063427dfaa714610119575b600080fd5b6100c16100bc36600461090f565b6101ef565b005b6100cc60015481565b6040519081526020015b60405180910390f35b6100f26100ed366004610988565b6104f6565b6040516100d69897969594939291906109aa565b6100c1610114366004610988565b6105dc565b6100c1610127366004610988565b60009182526002602090815260408084209284529190529020600701805460ff19166001179055565b6100cc61015e366004610a4a565b61064a565b6100c1610171366004610a7f565b610721565b6100c1610184366004610a98565b6107ce565b6100cc610197366004610a7f565b60006020819052908152604090205481565b6100c16101b7366004610988565b6000918252600260209081526040808420928452919052902060078101805460ff1916905560040180546001600160a01b0319169055565b3342861515600103610383576001805461020891610afe565b6001819055600090815260208190526040812080549161022783610b17565b919050555060405180610100016040528060015481526020016000806001548152602001908152602001600020548152602001868152602001836001600160a01b03168152602001856001600160a01b03168152602001828152602001848152602001600015158152506002600060015481526020019081526020016000206000806000600154815260200190815260200160002054815260200190815260200160002060008201518160000155602082015181600101556040820151816002015560608201518160030160006101000a8154816001600160a01b0302191690836001600160a01b0316021790555060808201518160040160006101000a8154816001600160a01b0302191690836001600160a01b0316021790555060a0820151816005015560c08201518160060190816103629190610bb9565b5060e091909101516007909101805460ff19169115159190911790556104ed565b600086815260208190526040812080549161039d83610b17565b9190505550604051806101000160405280878152602001600080898152602001908152602001600020548152602001868152602001836001600160a01b03168152602001856001600160a01b03168152602001828152602001848152602001600015158152506002600088815260200190815260200160002060008060008a815260200190815260200160002054815260200190815260200160002060008201518160000155602082015181600101556040820151816002015560608201518160030160006101000a8154816001600160a01b0302191690836001600160a01b0316021790555060808201518160040160006101000a8154816001600160a01b0302191690836001600160a01b0316021790555060a0820151816005015560c08201518160060190816104d09190610bb9565b5060e091909101516007909101805460ff19169115159190911790555b50505050505050565b60026020818152600093845260408085209091529183529120805460018201549282015460038301546004840154600585015460068601805495979694956001600160a01b03948516959490931693919261055090610b30565b80601f016020809104026020016040519081016040528092919081815260200182805461057c90610b30565b80156105c95780601f1061059e576101008083540402835291602001916105c9565b820191906000526020600020905b8154815290600101906020018083116105ac57829003601f168201915b5050506007909301549192505060ff1688565b60008281526002602081815260408084208585529091528220828155600181018390559081018290556003810180546001600160a01b03199081169091556004820180549091169055600581018290559061063a60068301826107fa565b50600701805460ff191690555050565b60008381526002602090815260408083208584529091528120600401546001600160a01b038381169116148015906106a6575060008481526002602090815260408083208684529091529020600401546001600160a01b031615155b156106b35750600361071a565b600084815260026020908152604080832086845290915290206007015460ff1615156001036106e45750600261071a565b60008481526002602090815260408083208684529091529020600301546001600160a01b03166107165750600161071a565b5060005b9392505050565b60005b6000828152602081905260409020548110156107ca57600082815260026020526040812090610754836001610afe565b81526020810191909152604001600090812081815560018101829055600281018290556003810180546001600160a01b0319908116909155600482018054909116905560058101829055906107ac60068301826107fa565b50600701805460ff19169055806107c281610b17565b915050610724565b5050565b600083815260026020908152604080832085845290915290206006016107f48282610bb9565b50505050565b50805461080690610b30565b6000825580601f10610816575050565b601f0160209004906000526020600020908101906108349190610837565b50565b5b8082111561084c5760008155600101610838565b5090565b80356001600160a01b038116811461086757600080fd5b919050565b634e487b7160e01b600052604160045260246000fd5b600082601f83011261089357600080fd5b813567ffffffffffffffff808211156108ae576108ae61086c565b604051601f8301601f19908116603f011681019082821181831017156108d6576108d661086c565b816040528381528660208588010111156108ef57600080fd5b836020870160208301376000602085830101528094505050505092915050565b600080600080600060a0868803121561092757600080fd5b8535801515811461093757600080fd5b9450602086013593506040860135925061095360608701610850565b9150608086013567ffffffffffffffff81111561096f57600080fd5b61097b88828901610882565b9150509295509295909350565b6000806040838503121561099b57600080fd5b50508035926020909101359150565b8881526020808201899052604082018890526001600160a01b0387811660608401528616608083015260a0820185905261010060c08301819052845190830181905260009182915b80831015610a11578683018201518584016101200152918101916109f2565b6101209250600083828701015282601f19601f8301168601019350505050610a3d60e083018415159052565b9998505050505050505050565b600080600060608486031215610a5f57600080fd5b8335925060208401359150610a7660408501610850565b90509250925092565b600060208284031215610a9157600080fd5b5035919050565b600080600060608486031215610aad57600080fd5b8335925060208401359150604084013567ffffffffffffffff811115610ad257600080fd5b610ade86828701610882565b9150509250925092565b634e487b7160e01b600052601160045260246000fd5b80820180821115610b1157610b11610ae8565b92915050565b600060018201610b2957610b29610ae8565b5060010190565b600181811c90821680610b4457607f821691505b602082108103610b6457634e487b7160e01b600052602260045260246000fd5b50919050565b601f821115610bb457600081815260208120601f850160051c81016020861015610b915750805b601f850160051c820191505b81811015610bb057828155600101610b9d565b5050505b505050565b815167ffffffffffffffff811115610bd357610bd361086c565b610be781610be18454610b30565b84610b6a565b602080601f831160018114610c1c5760008415610c045750858301515b600019600386901b1c1916600185901b178555610bb0565b600085815260208120601f198616915b82811015610c4b57888601518255948401946001909101908401610c2c565b5085821015610c695787850151600019600388901b60f8161c191681555b5050505050600190811b0190555056fea264697066735822122079327b34af2be62c314402649fac4e9fb0b61ebb3ab2792dca74abc4443c96fb64736f6c63430008130033",
  "immutableReferences": {},
  "source": "// SPDX-License-Identifier: UNLICENSED\npragma solidity <=0.8.19;\n\ncontract ShipmentList{\n    mapping(uint=>uint) public numberOfShipments;\n    uint public numberOfChains = 0;\n    mapping(uint => mapping(uint=>Shipment)) public listOfShipments;\n    struct Shipment{\n        uint chainId;\n        uint shipmentId;\n        uint medicineId;\n        address senderId;\n        address recieverId;\n        uint256 sendingTime;\n        string deliveryStatus;\n        bool transactionStatus;\n    }\n    function createShipment(bool newShipment, uint chainId, uint medicineId, address recieverId, string memory deliveryStatus) public{\n        // mapping(uint=> address) senderIds;\n        // mapping(uint=> uint256) sendingTimes = {};\n        address senderId = msg.sender;\n        uint256 sendingTime = block.timestamp;\n        if(newShipment==true){\n            numberOfChains = numberOfChains+1;\n            numberOfShipments[numberOfChains]++;\n            listOfShipments[numberOfChains][numberOfShipments[numberOfChains]] = Shipment(numberOfChains, numberOfShipments[numberOfChains], medicineId, senderId, recieverId, sendingTime, deliveryStatus, false);\n        }else{\n            numberOfShipments[chainId]++;\n            listOfShipments[chainId][numberOfShipments[chainId]] = Shipment(chainId, numberOfShipments[chainId], medicineId, senderId, recieverId, sendingTime, deliveryStatus, false);\n        }\n    }\n\n    function deleteShipment(uint chainId, uint shipmentId) public{\n        delete listOfShipments[chainId][shipmentId];\n    }\n\n    function deleteChain(uint chainId) public{\n        for(uint i = 0;i < numberOfShipments[chainId];i++){\n            delete listOfShipments[chainId][i+1];\n        }\n    }\n\n    function updateDeliveryStatus(uint chainId, uint shipmentId, string memory deliveryStatus) public {\n        listOfShipments[chainId][shipmentId].deliveryStatus = deliveryStatus;\n    }\n    function setTransactionComplete(uint chainId, uint shipmentId) public{\n        listOfShipments[chainId][shipmentId].transactionStatus = true;\n    }\n    function setVerified(uint chainId, uint shipmentId) public{\n        listOfShipments[chainId][shipmentId].transactionStatus = true;\n    }\n    // 0 for original unverified product\n    // 1 for shipment does not exist\n    // 2 for already verified product\n    // 3 for authentication error\n    function getVerificationResult(uint chainId, uint shipmentId, address account) public view returns(uint){\n        if(listOfShipments[chainId][shipmentId].recieverId!=account && listOfShipments[chainId][shipmentId].recieverId!=address(0)){\n            return 3;\n        }\n        if(listOfShipments[chainId][shipmentId].transactionStatus==true){\n            return 2;\n        }\n        if(listOfShipments[chainId][shipmentId].senderId==address(0)){\n            return 1;\n        }\n        else{\n           return 0;\n        }\n    }\n    function allowOpenSelling(uint chainId, uint shipmentId) public {\n        listOfShipments[chainId][shipmentId].transactionStatus = false;\n        listOfShipments[chainId][shipmentId].recieverId = address(0);\n    }\n\n}\n\n",
  "sourcePath": "/home/g/Documents/Truemed-backend/contracts/ShipmentList.sol",
  "compiler": {
    "name": "solc",
    "version": "0.8.19+commit.7dd6d404.Emscripten.clang"
  },
  "schemaVersion": "3.4.13",
  "updatedAt": "2023-05-05T10:42:05.243Z",
  "networkType": "ethereum",
  "devdoc": {
    "kind": "dev",
    "methods": {},
    "version": 1
  },
  "userdoc": {
    "kind": "user",
    "methods": {},
    "version": 1
  }
}