{
  "contractName": "ShipmentList",
  "abi": [
    {
      "inputs": [
        {
          "internalType": "uint256",
          "name": "",
          "type": "uint256"
        }
      ],
      "name": "listOfShipments",
      "outputs": [
        {
          "internalType": "uint256",
          "name": "shipmentId",
          "type": "uint256"
        },
        {
          "internalType": "address",
          "name": "senderId",
          "type": "address"
        },
        {
          "internalType": "address",
          "name": "recieverId",
          "type": "address"
        },
        {
          "internalType": "uint256",
          "name": "sendingTime",
          "type": "uint256"
        },
        {
          "internalType": "uint256",
          "name": "senderCount",
          "type": "uint256"
        }
      ],
      "stateMutability": "view",
      "type": "function",
      "constant": true
    },
    {
      "inputs": [],
      "name": "numberOfShipments",
      "outputs": [
        {
          "internalType": "uint256",
          "name": "",
          "type": "uint256"
        }
      ],
      "stateMutability": "view",
      "type": "function",
      "constant": true
    },
    {
      "inputs": [
        {
          "internalType": "address",
          "name": "recieverId",
          "type": "address"
        }
      ],
      "name": "createShipment",
      "outputs": [],
      "stateMutability": "nonpayable",
      "type": "function"
    },
    {
      "inputs": [
        {
          "internalType": "uint256",
          "name": "shipmentId",
          "type": "uint256"
        }
      ],
      "name": "deleteShipment",
      "outputs": [],
      "stateMutability": "nonpayable",
      "type": "function"
    }
  ],
  "bytecode": "0x60806040526000805534801561001457600080fd5b5061028a806100246000396000f3fe608060405234801561001057600080fd5b506004361061004c5760003560e01c80632f3e0bc614610051578063cb68065a146100a0578063e532f5c3146100bc578063e647167c146100cf575b600080fd5b61009e61005f3660046101e4565b6000908152600160208190526040822082815590810180546001600160a01b031990811690915560028201805490911690556003810182905560040155565b005b6100a960005481565b6040519081526020015b60405180910390f35b61009e6100ca3660046101fd565b61014c565b6101186100dd3660046101e4565b6001602081905260009182526040909120805491810154600282015460038301546004909301546001600160a01b0392831693919092169185565b604080519586526001600160a01b03948516602087015292909316918401919091526060830152608082015260a0016100b3565b60005461015a90600161022d565b60008181556040805160a0810182528381523360208083019182526001600160a01b039687168385019081524260608501908152600160808601818152988852928390529490952092518355905190820180549187166001600160a01b03199283161790559251600282018054919096169316929092179093559151600383015551600490910155565b6000602082840312156101f657600080fd5b5035919050565b60006020828403121561020f57600080fd5b81356001600160a01b038116811461022657600080fd5b9392505050565b8082018082111561024e57634e487b7160e01b600052601160045260246000fd5b9291505056fea2646970667358221220e669434a4ae5ade1d074dff4f1f563727ebdd1caf64de0d922dba6edaa170a1e64736f6c63430008130033",
  "immutableReferences": {},
  "source": "// SPDX-License-Identifier: UNLICENSED\npragma solidity <=0.8.19;\n\ncontract ShipmentList{\n    uint public numberOfShipments = 0;\n    mapping(uint => Shipment) public listOfShipments;\n    struct Shipment{\n        uint shipmentId;\n        address senderId;\n        address recieverId;\n        uint256 sendingTime;\n        uint senderCount;\n    }\n    \n    function createShipment(address recieverId) public{\n        // mapping(uint=> address) senderIds;\n        // mapping(uint=> uint256) sendingTimes = {};\n        numberOfShipments = numberOfShipments + 1;\n        address senderId = msg.sender;\n        uint256 sendingTime = block.timestamp;\n        uint senderCount = 1;\n        listOfShipments[numberOfShipments] = Shipment(numberOfShipments, senderId, recieverId, sendingTime, senderCount);\n    }\n\n    function deleteShipment(uint shipmentId) public{\n        delete listOfShipments[shipmentId];\n    }\n\n    // function sendShipment(uint shipmentId, address recieverId) public{\n        // Shipment memory shipment = listOfShipments[shipmentId];\n    // }\n\n}\n\n",
  "sourcePath": "/home/gautam/Documents/College project/fakeProductDetectionUsingBlockchain/contracts/ShipmentList.sol",
  "compiler": {
    "name": "solc",
    "version": "0.8.19+commit.7dd6d404.Emscripten.clang"
  },
  "schemaVersion": "3.4.13",
  "updatedAt": "2023-04-22T06:59:01.398Z",
  "networkType": "ethereum",
  "devdoc": {
    "kind": "dev",
    "methods": {},
    "version": 1
  },
  "userdoc": {
    "kind": "user",
    "methods": {},
    "version": 1
  }
}