{
  "contractName": "ShipmentList",
  "abi": [
    {
      "inputs": [
        {
          "internalType": "uint256",
          "name": "",
          "type": "uint256"
        },
        {
          "internalType": "uint256",
          "name": "",
          "type": "uint256"
        }
      ],
      "name": "listOfShipments",
      "outputs": [
        {
          "internalType": "uint256",
          "name": "chainId",
          "type": "uint256"
        },
        {
          "internalType": "uint256",
          "name": "shipmentId",
          "type": "uint256"
        },
        {
          "internalType": "uint256",
          "name": "medicineId",
          "type": "uint256"
        },
        {
          "internalType": "address",
          "name": "senderId",
          "type": "address"
        },
        {
          "internalType": "address",
          "name": "recieverId",
          "type": "address"
        },
        {
          "internalType": "uint256",
          "name": "sendingTime",
          "type": "uint256"
        },
        {
          "internalType": "string",
          "name": "deliveryStatus",
          "type": "string"
        },
        {
          "internalType": "bool",
          "name": "transactionStatus",
          "type": "bool"
        }
      ],
      "stateMutability": "view",
      "type": "function",
      "constant": true
    },
    {
      "inputs": [],
      "name": "numberOfChains",
      "outputs": [
        {
          "internalType": "uint256",
          "name": "",
          "type": "uint256"
        }
      ],
      "stateMutability": "view",
      "type": "function",
      "constant": true
    },
    {
      "inputs": [
        {
          "internalType": "uint256",
          "name": "",
          "type": "uint256"
        }
      ],
      "name": "numberOfShipments",
      "outputs": [
        {
          "internalType": "uint256",
          "name": "",
          "type": "uint256"
        }
      ],
      "stateMutability": "view",
      "type": "function",
      "constant": true
    },
    {
      "inputs": [
        {
          "internalType": "bool",
          "name": "newShipment",
          "type": "bool"
        },
        {
          "internalType": "uint256",
          "name": "chainId",
          "type": "uint256"
        },
        {
          "internalType": "uint256",
          "name": "medicineId",
          "type": "uint256"
        },
        {
          "internalType": "address",
          "name": "recieverId",
          "type": "address"
        },
        {
          "internalType": "string",
          "name": "deliveryStatus",
          "type": "string"
        }
      ],
      "name": "createShipment",
      "outputs": [],
      "stateMutability": "nonpayable",
      "type": "function"
    },
    {
      "inputs": [
        {
          "internalType": "uint256",
          "name": "chainId",
          "type": "uint256"
        },
        {
          "internalType": "uint256",
          "name": "shipmentId",
          "type": "uint256"
        }
      ],
      "name": "deleteShipment",
      "outputs": [],
      "stateMutability": "nonpayable",
      "type": "function"
    },
    {
      "inputs": [
        {
          "internalType": "uint256",
          "name": "chainId",
          "type": "uint256"
        }
      ],
      "name": "deleteChain",
      "outputs": [],
      "stateMutability": "nonpayable",
      "type": "function"
    },
    {
      "inputs": [
        {
          "internalType": "uint256",
          "name": "chainId",
          "type": "uint256"
        },
        {
          "internalType": "uint256",
          "name": "shipmentId",
          "type": "uint256"
        },
        {
          "internalType": "string",
          "name": "deliveryStatus",
          "type": "string"
        }
      ],
      "name": "updateDeliveryStatus",
      "outputs": [],
      "stateMutability": "nonpayable",
      "type": "function"
    },
    {
      "inputs": [
        {
          "internalType": "uint256",
          "name": "chainId",
          "type": "uint256"
        },
        {
          "internalType": "uint256",
          "name": "shipmentId",
          "type": "uint256"
        }
      ],
      "name": "setTransactionComplete",
      "outputs": [],
      "stateMutability": "nonpayable",
      "type": "function"
    },
    {
      "inputs": [
        {
          "internalType": "uint256",
          "name": "chainId",
          "type": "uint256"
        },
        {
          "internalType": "uint256",
          "name": "shipmentId",
          "type": "uint256"
        }
      ],
      "name": "setVerified",
      "outputs": [],
      "stateMutability": "nonpayable",
      "type": "function"
    },
    {
      "inputs": [
        {
          "internalType": "uint256",
          "name": "chainId",
          "type": "uint256"
        },
        {
          "internalType": "uint256",
          "name": "shipmentId",
          "type": "uint256"
        }
      ],
      "name": "getVerificationResult",
      "outputs": [
        {
          "internalType": "bool",
          "name": "",
          "type": "bool"
        }
      ],
      "stateMutability": "view",
      "type": "function",
      "constant": true
    },
    {
      "inputs": [
        {
          "internalType": "uint256",
          "name": "chainId",
          "type": "uint256"
        },
        {
          "internalType": "uint256",
          "name": "shipmentId",
          "type": "uint256"
        }
      ],
      "name": "allowOpenSelling",
      "outputs": [],
      "stateMutability": "nonpayable",
      "type": "function"
    }
  ],
  "bytecode": "0x6080604052600060015534801561001557600080fd5b50610c3d806100256000396000f3fe608060405234801561001057600080fd5b50600436106100a95760003560e01c80636a36c423116100715780636a36c42314610150578063ce735b0814610163578063cfbf484414610176578063d5264aba14610199578063de62944f14610119578063f0e8b1a2146101b957600080fd5b806302bc40b3146100ae578063069aaa77146100c35780630b2f318c146100df5780631d48ba7c14610106578063427dfaa714610119575b600080fd5b6100c16100bc3660046108ca565b6101ff565b005b6100cc60015481565b6040519081526020015b60405180910390f35b6100f26100ed366004610951565b610506565b6040516100d6989796959493929190610973565b6100c1610114366004610951565b6105ec565b6100c1610127366004610951565b60009182526002602090815260408084209284529190529020600701805460ff19166001179055565b6100c161015e366004610a13565b61065a565b6100c1610171366004610a2c565b610707565b610189610184366004610951565b610733565b60405190151581526020016100d6565b6100cc6101a7366004610a13565b60006020819052908152604090205481565b6100c16101c7366004610951565b6000918252600260209081526040808420928452919052902060078101805460ff1916905560040180546001600160a01b0319169055565b3342861515600103610393576001805461021891610a92565b6001819055600090815260208190526040812080549161023783610aa5565b919050555060405180610100016040528060015481526020016000806001548152602001908152602001600020548152602001868152602001836001600160a01b03168152602001856001600160a01b03168152602001828152602001848152602001600015158152506002600060015481526020019081526020016000206000806000600154815260200190815260200160002054815260200190815260200160002060008201518160000155602082015181600101556040820151816002015560608201518160030160006101000a8154816001600160a01b0302191690836001600160a01b0316021790555060808201518160040160006101000a8154816001600160a01b0302191690836001600160a01b0316021790555060a0820151816005015560c08201518160060190816103729190610b47565b5060e091909101516007909101805460ff19169115159190911790556104fd565b60008681526020819052604081208054916103ad83610aa5565b9190505550604051806101000160405280878152602001600080898152602001908152602001600020548152602001868152602001836001600160a01b03168152602001856001600160a01b03168152602001828152602001848152602001600015158152506002600088815260200190815260200160002060008060008a815260200190815260200160002054815260200190815260200160002060008201518160000155602082015181600101556040820151816002015560608201518160030160006101000a8154816001600160a01b0302191690836001600160a01b0316021790555060808201518160040160006101000a8154816001600160a01b0302191690836001600160a01b0316021790555060a0820151816005015560c08201518160060190816104e09190610b47565b5060e091909101516007909101805460ff19169115159190911790555b50505050505050565b60026020818152600093845260408085209091529183529120805460018201549282015460038301546004840154600585015460068601805495979694956001600160a01b03948516959490931693919261056090610abe565b80601f016020809104026020016040519081016040528092919081815260200182805461058c90610abe565b80156105d95780601f106105ae576101008083540402835291602001916105d9565b820191906000526020600020905b8154815290600101906020018083116105bc57829003601f168201915b5050506007909301549192505060ff1688565b60008281526002602081815260408084208585529091528220828155600181018390559081018290556003810180546001600160a01b03199081169091556004820180549091169055600581018290559061064a60068301826107d1565b50600701805460ff191690555050565b60005b6000828152602081905260409020548110156107035760008281526002602052604081209061068d836001610a92565b81526020810191909152604001600090812081815560018101829055600281018290556003810180546001600160a01b0319908116909155600482018054909116905560058101829055906106e560068301826107d1565b50600701805460ff19169055806106fb81610aa5565b91505061065d565b5050565b6000838152600260209081526040808320858452909152902060060161072d8282610b47565b50505050565b600082815260026020908152604080832084845290915281206007015460ff161515600103610764575060006107cb565b60008381526002602090815260408083208584529091529020600401546001600160a01b03163314806107ba575060008381526002602090815260408083208584529091529020600401546001600160a01b0316155b156107c7575060016107cb565b5060005b92915050565b5080546107dd90610abe565b6000825580601f106107ed575050565b601f01602090049060005260206000209081019061080b919061080e565b50565b5b80821115610823576000815560010161080f565b5090565b634e487b7160e01b600052604160045260246000fd5b600082601f83011261084e57600080fd5b813567ffffffffffffffff8082111561086957610869610827565b604051601f8301601f19908116603f0116810190828211818310171561089157610891610827565b816040528381528660208588010111156108aa57600080fd5b836020870160208301376000602085830101528094505050505092915050565b600080600080600060a086880312156108e257600080fd5b853580151581146108f257600080fd5b9450602086013593506040860135925060608601356001600160a01b038116811461091c57600080fd5b9150608086013567ffffffffffffffff81111561093857600080fd5b6109448882890161083d565b9150509295509295909350565b6000806040838503121561096457600080fd5b50508035926020909101359150565b8881526020808201899052604082018890526001600160a01b0387811660608401528616608083015260a0820185905261010060c08301819052845190830181905260009182915b808310156109da578683018201518584016101200152918101916109bb565b6101209250600083828701015282601f19601f8301168601019350505050610a0660e083018415159052565b9998505050505050505050565b600060208284031215610a2557600080fd5b5035919050565b600080600060608486031215610a4157600080fd5b8335925060208401359150604084013567ffffffffffffffff811115610a6657600080fd5b610a728682870161083d565b9150509250925092565b634e487b7160e01b600052601160045260246000fd5b808201808211156107cb576107cb610a7c565b600060018201610ab757610ab7610a7c565b5060010190565b600181811c90821680610ad257607f821691505b602082108103610af257634e487b7160e01b600052602260045260246000fd5b50919050565b601f821115610b4257600081815260208120601f850160051c81016020861015610b1f5750805b601f850160051c820191505b81811015610b3e57828155600101610b2b565b5050505b505050565b815167ffffffffffffffff811115610b6157610b61610827565b610b7581610b6f8454610abe565b84610af8565b602080601f831160018114610baa5760008415610b925750858301515b600019600386901b1c1916600185901b178555610b3e565b600085815260208120601f198616915b82811015610bd957888601518255948401946001909101908401610bba565b5085821015610bf75787850151600019600388901b60f8161c191681555b5050505050600190811b0190555056fea2646970667358221220761a7faa1e67beea7a467dd8a039afd181f7fb439db4f6b61914c4c40a923c9b64736f6c63430008130033",
  "immutableReferences": {},
  "source": "// SPDX-License-Identifier: UNLICENSED\npragma solidity <=0.8.19;\n\ncontract ShipmentList{\n    mapping(uint=>uint) public numberOfShipments;\n    uint public numberOfChains = 0;\n    mapping(uint => mapping(uint=>Shipment)) public listOfShipments;\n    struct Shipment{\n        uint chainId;\n        uint shipmentId;\n        uint medicineId;\n        address senderId;\n        address recieverId;\n        uint256 sendingTime;\n        string deliveryStatus;\n        bool transactionStatus;\n    }\n    function createShipment(bool newShipment, uint chainId, uint medicineId, address recieverId, string memory deliveryStatus) public{\n        // mapping(uint=> address) senderIds;\n        // mapping(uint=> uint256) sendingTimes = {};\n        address senderId = msg.sender;\n        uint256 sendingTime = block.timestamp;\n        if(newShipment==true){\n            numberOfChains = numberOfChains+1;\n            numberOfShipments[numberOfChains]++;\n            listOfShipments[numberOfChains][numberOfShipments[numberOfChains]] = Shipment(numberOfChains, numberOfShipments[numberOfChains], medicineId, senderId, recieverId, sendingTime, deliveryStatus, false);\n        }else{\n            numberOfShipments[chainId]++;\n            listOfShipments[chainId][numberOfShipments[chainId]] = Shipment(chainId, numberOfShipments[chainId], medicineId, senderId, recieverId, sendingTime, deliveryStatus, false);\n        }\n    }\n\n    function deleteShipment(uint chainId, uint shipmentId) public{\n        delete listOfShipments[chainId][shipmentId];\n    }\n\n    function deleteChain(uint chainId) public{\n        for(uint i = 0;i < numberOfShipments[chainId];i++){\n            delete listOfShipments[chainId][i+1];\n        }\n    }\n\n    function updateDeliveryStatus(uint chainId, uint shipmentId, string memory deliveryStatus) public {\n        listOfShipments[chainId][shipmentId].deliveryStatus = deliveryStatus;\n    }\n    function setTransactionComplete(uint chainId, uint shipmentId) public{\n        listOfShipments[chainId][shipmentId].transactionStatus = true;\n    }\n    function setVerified(uint chainId, uint shipmentId) public{\n        listOfShipments[chainId][shipmentId].transactionStatus = true;\n    }\n    function getVerificationResult(uint chainId, uint shipmentId) public view returns(bool){\n        if(listOfShipments[chainId][shipmentId].transactionStatus==true){\n            return false;\n        }else{\n            if(listOfShipments[chainId][shipmentId].recieverId==msg.sender || listOfShipments[chainId][shipmentId].recieverId==address(0)){\n                return true;\n            }else{\n                return false;\n            }\n        }\n    }\n    function allowOpenSelling(uint chainId, uint shipmentId) public {\n        listOfShipments[chainId][shipmentId].transactionStatus = false;\n        listOfShipments[chainId][shipmentId].recieverId = address(0);\n    }\n\n}\n\n",
  "sourcePath": "/home/gautam/Documents/College project/fakeProductDetectionUsingBlockchain/contracts/ShipmentList.sol",
  "compiler": {
    "name": "solc",
    "version": "0.8.19+commit.7dd6d404.Emscripten.clang"
  },
  "schemaVersion": "3.4.13",
  "updatedAt": "2023-04-23T09:56:06.251Z",
  "networkType": "ethereum",
  "devdoc": {
    "kind": "dev",
    "methods": {},
    "version": 1
  },
  "userdoc": {
    "kind": "user",
    "methods": {},
    "version": 1
  }
}