{
  "contractName": "UserList",
  "abi": [
    {
      "inputs": [
        {
          "internalType": "string",
          "name": "userType",
          "type": "string"
        }
      ],
      "name": "login",
      "outputs": [],
      "stateMutability": "nonpayable",
      "type": "function"
    },
    {
      "inputs": [],
      "name": "getType",
      "outputs": [
        {
          "internalType": "string",
          "name": "",
          "type": "string"
        }
      ],
      "stateMutability": "view",
      "type": "function",
      "constant": true
    },
    {
      "inputs": [
        {
          "internalType": "address",
          "name": "userAddress",
          "type": "address"
        }
      ],
      "name": "getUserType",
      "outputs": [
        {
          "internalType": "string",
          "name": "",
          "type": "string"
        }
      ],
      "stateMutability": "view",
      "type": "function",
      "constant": true
    },
    {
      "inputs": [],
      "name": "verifyUser",
      "outputs": [
        {
          "internalType": "bool",
          "name": "",
          "type": "bool"
        }
      ],
      "stateMutability": "view",
      "type": "function",
      "constant": true
    }
  ],
  "bytecode": "0x608060405234801561001057600080fd5b50610546806100206000396000f3fe608060405234801561001057600080fd5b506004361061004c5760003560e01c806315dae03e146100515780633a7d280c1461006f5780638b3f863f146100845780639540748214610097575b600080fd5b6100596100af565b6040516100669190610282565b60405180910390f35b61008261007d3660046102e6565b610153565b005b610059610092366004610397565b6101aa565b61009f610259565b6040519015158152602001610066565b3360009081526020819052604090206001018054606091906100d0906103c7565b80601f01602080910402602001604051908101604052809291908181526020018280546100fc906103c7565b80156101495780601f1061011e57610100808354040283529160200191610149565b820191906000526020600020905b81548152906001019060200180831161012c57829003601f168201915b5050505050905090565b604080518082018252338082526020808301858152600092835290829052929020815181546001600160a01b0319166001600160a01b03909116178155915190919060018201906101a49082610450565b50505050565b6001600160a01b03811660009081526020819052604090206001018054606091906101d4906103c7565b80601f0160208091040260200160405190810160405280929190818152602001828054610200906103c7565b801561024d5780601f106102225761010080835404028352916020019161024d565b820191906000526020600020905b81548152906001019060200180831161023057829003601f168201915b50505050509050919050565b336000908152602081905260408120546001600160a01b031661027c5750600090565b50600190565b600060208083528351808285015260005b818110156102af57858101830151858201604001528201610293565b506000604082860101526040601f19601f8301168501019250505092915050565b634e487b7160e01b600052604160045260246000fd5b6000602082840312156102f857600080fd5b813567ffffffffffffffff8082111561031057600080fd5b818401915084601f83011261032457600080fd5b813581811115610336576103366102d0565b604051601f8201601f19908116603f0116810190838211818310171561035e5761035e6102d0565b8160405282815287602084870101111561037757600080fd5b826020860160208301376000928101602001929092525095945050505050565b6000602082840312156103a957600080fd5b81356001600160a01b03811681146103c057600080fd5b9392505050565b600181811c908216806103db57607f821691505b6020821081036103fb57634e487b7160e01b600052602260045260246000fd5b50919050565b601f82111561044b57600081815260208120601f850160051c810160208610156104285750805b601f850160051c820191505b8181101561044757828155600101610434565b5050505b505050565b815167ffffffffffffffff81111561046a5761046a6102d0565b61047e8161047884546103c7565b84610401565b602080601f8311600181146104b3576000841561049b5750858301515b600019600386901b1c1916600185901b178555610447565b600085815260208120601f198616915b828110156104e2578886015182559484019460019091019084016104c3565b50858210156105005787850151600019600388901b60f8161c191681555b5050505050600190811b0190555056fea2646970667358221220a990077c01031d18be88c6810f8225fbc49a2e494dc0edfff3d81afeab1a763664736f6c63430008130033",
  "immutableReferences": {},
  "source": "// SPDX-License-Identifier: UNLICENSED\npragma solidity <=0.8.19;\n\ncontract UserList{\n    struct User{\n        address userAddress;\n        string userType;\n    }\n    mapping(address=>User) listOfUsers;\n\n    function login(string memory userType) public{\n        listOfUsers[msg.sender] = User(msg.sender, userType);\n    }\n    function getType() public view returns(string memory){\n        return listOfUsers[msg.sender].userType;\n    }\n\n    function getUserType(address userAddress) public view returns(string memory){\n        return listOfUsers[userAddress].userType;\n    }\n\n    function verifyUser() public view returns(bool){\n        if(listOfUsers[msg.sender].userAddress == address(0)) return false;\n        return true;\n    }\n\n}",
  "sourcePath": "/home/g/Documents/Truemed-backend/contracts/UserList.sol",
  "compiler": {
    "name": "solc",
    "version": "0.8.19+commit.7dd6d404.Emscripten.clang"
  },
  "schemaVersion": "3.4.13",
  "updatedAt": "2023-05-05T08:16:10.240Z",
  "networkType": "ethereum",
  "devdoc": {
    "kind": "dev",
    "methods": {},
    "version": 1
  },
  "userdoc": {
    "kind": "user",
    "methods": {},
    "version": 1
  }
}