{
  "contractName": "UserList",
  "abi": [
    {
      "inputs": [
        {
          "internalType": "string",
          "name": "userType",
          "type": "string"
        }
      ],
      "name": "login",
      "outputs": [],
      "stateMutability": "nonpayable",
      "type": "function"
    },
    {
      "inputs": [],
      "name": "getType",
      "outputs": [
        {
          "internalType": "string",
          "name": "",
          "type": "string"
        }
      ],
      "stateMutability": "view",
      "type": "function",
      "constant": true
    },
    {
      "inputs": [],
      "name": "verifyUser",
      "outputs": [
        {
          "internalType": "bool",
          "name": "",
          "type": "bool"
        }
      ],
      "stateMutability": "view",
      "type": "function",
      "constant": true
    }
  ],
  "bytecode": "0x608060405234801561001057600080fd5b50610449806100206000396000f3fe608060405234801561001057600080fd5b50600436106100415760003560e01c806315dae03e146100465780633a7d280c146100645780639540748214610079575b600080fd5b61004e610091565b60405161005b91906101b5565b60405180910390f35b610077610072366004610219565b610135565b005b61008161018c565b604051901515815260200161005b565b3360009081526020819052604090206001018054606091906100b2906102ca565b80601f01602080910402602001604051908101604052809291908181526020018280546100de906102ca565b801561012b5780601f106101005761010080835404028352916020019161012b565b820191906000526020600020905b81548152906001019060200180831161010e57829003601f168201915b5050505050905090565b604080518082018252338082526020808301858152600092835290829052929020815181546001600160a01b0319166001600160a01b03909116178155915190919060018201906101869082610353565b50505050565b336000908152602081905260408120546001600160a01b03166101af5750600090565b50600190565b600060208083528351808285015260005b818110156101e2578581018301518582016040015282016101c6565b506000604082860101526040601f19601f8301168501019250505092915050565b634e487b7160e01b600052604160045260246000fd5b60006020828403121561022b57600080fd5b813567ffffffffffffffff8082111561024357600080fd5b818401915084601f83011261025757600080fd5b81358181111561026957610269610203565b604051601f8201601f19908116603f0116810190838211818310171561029157610291610203565b816040528281528760208487010111156102aa57600080fd5b826020860160208301376000928101602001929092525095945050505050565b600181811c908216806102de57607f821691505b6020821081036102fe57634e487b7160e01b600052602260045260246000fd5b50919050565b601f82111561034e57600081815260208120601f850160051c8101602086101561032b5750805b601f850160051c820191505b8181101561034a57828155600101610337565b5050505b505050565b815167ffffffffffffffff81111561036d5761036d610203565b6103818161037b84546102ca565b84610304565b602080601f8311600181146103b6576000841561039e5750858301515b600019600386901b1c1916600185901b17855561034a565b600085815260208120601f198616915b828110156103e5578886015182559484019460019091019084016103c6565b50858210156104035787850151600019600388901b60f8161c191681555b5050505050600190811b0190555056fea26469706673582212202718ba66d6c8e8ddc0b052a1b20afe5a7f869edd1425cf9f6f3bd5a21ca2102964736f6c63430008130033",
  "immutableReferences": {},
  "source": "// SPDX-License-Identifier: UNLICENSED\npragma solidity <=0.8.19;\n\ncontract UserList{\n    struct User{\n        address userAddress;\n        string userType;\n    }\n    mapping(address=>User) listOfUsers;\n\n    function login(string memory userType) public{\n        listOfUsers[msg.sender] = User(msg.sender, userType);\n    }\n    function getType() public view returns(string memory){\n        return listOfUsers[msg.sender].userType;\n    }\n\n    function verifyUser() public view returns(bool){\n        if(listOfUsers[msg.sender].userAddress == address(0)) return false;\n        return true;\n    }\n\n}",
  "sourcePath": "/home/gautam/Documents/College project/fakeProductDetectionUsingBlockchain/contracts/UserList.sol",
  "compiler": {
    "name": "solc",
    "version": "0.8.19+commit.7dd6d404.Emscripten.clang"
  },
  "schemaVersion": "3.4.13",
  "updatedAt": "2023-04-23T07:39:48.322Z",
  "networkType": "ethereum",
  "devdoc": {
    "kind": "dev",
    "methods": {},
    "version": 1
  },
  "userdoc": {
    "kind": "user",
    "methods": {},
    "version": 1
  }
}